{
  "contractName": "Voting",
  "abi": [
    {
      "anonymous": false,
      "inputs": [
        {
          "indexed": true,
          "internalType": "address",
          "name": "previousOwner",
          "type": "address"
        },
        {
          "indexed": true,
          "internalType": "address",
          "name": "newOwner",
          "type": "address"
        }
      ],
      "name": "OwnershipTransferred",
      "type": "event"
    },
    {
      "anonymous": false,
      "inputs": [
        {
          "indexed": false,
          "internalType": "uint256",
          "name": "proposalId",
          "type": "uint256"
        }
      ],
      "name": "ProposalRegistered",
      "type": "event"
    },
    {
      "anonymous": false,
      "inputs": [],
      "name": "ProposalsRegistrationEnded",
      "type": "event"
    },
    {
      "anonymous": false,
      "inputs": [],
      "name": "ProposalsRegistrationStarted",
      "type": "event"
    },
    {
      "anonymous": false,
      "inputs": [
        {
          "indexed": false,
          "internalType": "address",
          "name": "voter",
          "type": "address"
        },
        {
          "indexed": false,
          "internalType": "uint256",
          "name": "proposalId",
          "type": "uint256"
        }
      ],
      "name": "Voted",
      "type": "event"
    },
    {
      "anonymous": false,
      "inputs": [
        {
          "indexed": false,
          "internalType": "address",
          "name": "voterAddress",
          "type": "address"
        }
      ],
      "name": "VoterRegistered",
      "type": "event"
    },
    {
      "anonymous": false,
      "inputs": [],
      "name": "VotesTallied",
      "type": "event"
    },
    {
      "anonymous": false,
      "inputs": [],
      "name": "VotingSessionEnded",
      "type": "event"
    },
    {
      "anonymous": false,
      "inputs": [],
      "name": "VotingSessionStarted",
      "type": "event"
    },
    {
      "anonymous": false,
      "inputs": [
        {
          "indexed": false,
          "internalType": "enum Voting.WorkflowStatus",
          "name": "previousStatus",
          "type": "uint8"
        },
        {
          "indexed": false,
          "internalType": "enum Voting.WorkflowStatus",
          "name": "newStatus",
          "type": "uint8"
        }
      ],
      "name": "WorkflowStatusChange",
      "type": "event"
    },
    {
      "inputs": [],
      "name": "owner",
      "outputs": [
        {
          "internalType": "address",
          "name": "",
          "type": "address"
        }
      ],
      "stateMutability": "view",
      "type": "function",
      "constant": true
    },
    {
      "inputs": [
        {
          "internalType": "uint256",
          "name": "",
          "type": "uint256"
        }
      ],
      "name": "proposals",
      "outputs": [
        {
          "internalType": "string",
          "name": "description",
          "type": "string"
        },
        {
          "internalType": "uint256",
          "name": "voteCount",
          "type": "uint256"
        }
      ],
      "stateMutability": "view",
      "type": "function",
      "constant": true
    },
    {
      "inputs": [],
      "name": "renounceOwnership",
      "outputs": [],
      "stateMutability": "nonpayable",
      "type": "function"
    },
    {
      "inputs": [],
      "name": "status",
      "outputs": [
        {
          "internalType": "enum Voting.WorkflowStatus",
          "name": "",
          "type": "uint8"
        }
      ],
      "stateMutability": "view",
      "type": "function",
      "constant": true
    },
    {
      "inputs": [
        {
          "internalType": "address",
          "name": "newOwner",
          "type": "address"
        }
      ],
      "name": "transferOwnership",
      "outputs": [],
      "stateMutability": "nonpayable",
      "type": "function"
    },
    {
      "inputs": [
        {
          "internalType": "address",
          "name": "",
          "type": "address"
        }
      ],
      "name": "voters",
      "outputs": [
        {
          "internalType": "bool",
          "name": "isRegistered",
          "type": "bool"
        },
        {
          "internalType": "bool",
          "name": "hasVoted",
          "type": "bool"
        },
        {
          "internalType": "uint256",
          "name": "votedProposalId",
          "type": "uint256"
        }
      ],
      "stateMutability": "view",
      "type": "function",
      "constant": true
    },
    {
      "inputs": [],
      "name": "winningProposalId",
      "outputs": [
        {
          "internalType": "uint256",
          "name": "",
          "type": "uint256"
        }
      ],
      "stateMutability": "view",
      "type": "function",
      "constant": true
    },
    {
      "inputs": [
        {
          "internalType": "address",
          "name": "_address",
          "type": "address"
        }
      ],
      "name": "registerVoter",
      "outputs": [],
      "stateMutability": "nonpayable",
      "type": "function"
    },
    {
      "inputs": [],
      "name": "nextStep",
      "outputs": [
        {
          "internalType": "uint256",
          "name": "",
          "type": "uint256"
        }
      ],
      "stateMutability": "nonpayable",
      "type": "function"
    },
    {
      "inputs": [
        {
          "internalType": "string",
          "name": "_description",
          "type": "string"
        }
      ],
      "name": "propose",
      "outputs": [],
      "stateMutability": "nonpayable",
      "type": "function"
    },
    {
      "inputs": [
        {
          "internalType": "uint256",
          "name": "_proposalId",
          "type": "uint256"
        }
      ],
      "name": "vote",
      "outputs": [],
      "stateMutability": "nonpayable",
      "type": "function"
    },
    {
      "inputs": [],
      "name": "getWinningProposalDescription",
      "outputs": [
        {
          "internalType": "string",
          "name": "",
          "type": "string"
        }
      ],
      "stateMutability": "view",
      "type": "function",
      "constant": true
    },
    {
      "inputs": [],
      "name": "getWinningProposalVoteCount",
      "outputs": [
        {
          "internalType": "uint256",
          "name": "",
          "type": "uint256"
        }
      ],
      "stateMutability": "view",
      "type": "function",
      "constant": true
    },
    {
      "inputs": [
        {
          "internalType": "address",
          "name": "_voterAddress",
          "type": "address"
        }
      ],
      "name": "isRegisteredVoter",
      "outputs": [
        {
          "internalType": "bool",
          "name": "",
          "type": "bool"
        }
      ],
      "stateMutability": "view",
      "type": "function",
      "constant": true
    },
    {
      "inputs": [
        {
          "internalType": "address",
          "name": "_voteraddress",
          "type": "address"
        }
      ],
      "name": "getVotedByAVoter",
      "outputs": [
        {
          "internalType": "uint256",
          "name": "",
          "type": "uint256"
        }
      ],
      "stateMutability": "view",
      "type": "function",
      "constant": true
    },
    {
      "inputs": [],
      "name": "getWorkflowStatus",
      "outputs": [
        {
          "internalType": "uint256",
          "name": "",
          "type": "uint256"
        }
      ],
      "stateMutability": "view",
      "type": "function",
      "constant": true
    },
    {
      "inputs": [],
      "name": "showProposals",
      "outputs": [
        {
          "internalType": "string",
          "name": "",
          "type": "string"
        }
      ],
      "stateMutability": "view",
      "type": "function",
      "constant": true
    }
  ],
  "bytecode": "0x6080604052600060025534801561001557600080fd5b5060006100266100c960201b60201c565b9050806000806101000a81548173ffffffffffffffffffffffffffffffffffffffff021916908373ffffffffffffffffffffffffffffffffffffffff1602179055508073ffffffffffffffffffffffffffffffffffffffff16600073ffffffffffffffffffffffffffffffffffffffff167f8be0079c531659141344cd1fd0a4f28419497f9722a3daafe3b4186f6b6457e060405160405180910390a3506100d1565b600033905090565b6129f9806100e06000396000f3fe608060405234801561001057600080fd5b506004361061010b5760003560e01c806393b08bf5116100a2578063c64963c511610071578063c64963c514610513578063c900072614610531578063da36cffe1461054f578063f2fde38b146105ab578063f75d64a6146105ef5761010b565b806393b08bf514610351578063a299b5ed146103d4578063a3ec138d1461042c578063aa98df391461049a5761010b565b806337d05ddc116100de57806337d05ddc1461023657806338db6dd3146102b9578063715018a6146102fd5780638da5cb5b146103075761010b565b80630121b93f14610110578063013cf08b1461013e578063200d2ed2146101ec57806333938b4514610218575b600080fd5b61013c6004803603602081101561012657600080fd5b810190808035906020019092919050505061060d565b005b61016a6004803603602081101561015457600080fd5b810190808035906020019092919050505061094d565b6040518080602001838152602001828103825284818151815260200191508051906020019080838360005b838110156101b0578082015181840152602081019050610195565b50505050905090810190601f1680156101dd5780820380516001836020036101000a031916815260200191505b50935050505060405180910390f35b6101f4610a16565b6040518082600581111561020457fe5b60ff16815260200191505060405180910390f35b610220610a29565b6040518082815260200191505060405180910390f35b61023e610a88565b6040518080602001828103825283818151815260200191508051906020019080838360005b8381101561027e578082015181840152602081019050610263565b50505050905090810190601f1680156102ab5780820380516001836020036101000a031916815260200191505b509250505060405180910390f35b6102fb600480360360208110156102cf57600080fd5b81019080803573ffffffffffffffffffffffffffffffffffffffff169060200190929190505050610bb3565b005b610305610efb565b005b61030f611083565b604051808273ffffffffffffffffffffffffffffffffffffffff1673ffffffffffffffffffffffffffffffffffffffff16815260200191505060405180910390f35b6103596110ac565b6040518080602001828103825283818151815260200191508051906020019080838360005b8381101561039957808201518184015260208101905061037e565b50505050905090810190601f1680156103c65780820380516001836020036101000a031916815260200191505b509250505060405180910390f35b610416600480360360208110156103ea57600080fd5b81019080803573ffffffffffffffffffffffffffffffffffffffff1690602001909291905050506115d9565b6040518082815260200191505060405180910390f35b61046e6004803603602081101561044257600080fd5b81019080803573ffffffffffffffffffffffffffffffffffffffff169060200190929190505050611625565b604051808415151515815260200183151515158152602001828152602001935050505060405180910390f35b610511600480360360208110156104b057600080fd5b81019080803590602001906401000000008111156104cd57600080fd5b8201836020820111156104df57600080fd5b8035906020019184600183028401116401000000008311171561050157600080fd5b9091929391929390505050611669565b005b61051b61187a565b6040518082815260200191505060405180910390f35b610539611880565b6040518082815260200191505060405180910390f35b6105916004803603602081101561056557600080fd5b81019080803573ffffffffffffffffffffffffffffffffffffffff1690602001909291905050506119d2565b604051808215151515815260200191505060405180910390f35b6105ed600480360360208110156105c157600080fd5b81019080803573ffffffffffffffffffffffffffffffffffffffff169060200190929190505050611a2b565b005b6105f7611c38565b6040518082815260200191505060405180910390f35b6003600581111561061a57fe5b600460009054906101000a900460ff16600581111561063557fe5b146106a8576040517f08c379a00000000000000000000000000000000000000000000000000000000081526004018080602001828103825260208152602001807f6365206e2765737420706173206c65206d6f6d656e7420646520766f7465722181525060200191505060405180910390fd5b600160003373ffffffffffffffffffffffffffffffffffffffff1673ffffffffffffffffffffffffffffffffffffffff16815260200190815260200160002060000160009054906101000a900460ff1661074d576040517f08c379a00000000000000000000000000000000000000000000000000000000081526004018080602001828103825260218152602001806128c26021913960400191505060405180910390fd5b600160003373ffffffffffffffffffffffffffffffffffffffff1673ffffffffffffffffffffffffffffffffffffffff16815260200190815260200160002060000160019054906101000a900460ff1615610810576040517f08c379a00000000000000000000000000000000000000000000000000000000081526004018080602001828103825260168152602001807f766f7573206176657a2064c3a96ac3a020766f74c3a90000000000000000000081525060200191505060405180910390fd5b60018060003373ffffffffffffffffffffffffffffffffffffffff1673ffffffffffffffffffffffffffffffffffffffff16815260200190815260200160002060000160016101000a81548160ff02191690831515021790555080600160003373ffffffffffffffffffffffffffffffffffffffff1673ffffffffffffffffffffffffffffffffffffffff16815260200190815260200160002060010181905550600381815481106108be57fe5b9060005260206000209060020201600101600081548092919060010191905055507f4d99b957a2bc29a30ebd96a7be8e68fe50a3c701db28a91436490b7d53870ca43382604051808373ffffffffffffffffffffffffffffffffffffffff1673ffffffffffffffffffffffffffffffffffffffff1681526020018281526020019250505060405180910390a150565b6003818154811061095a57fe5b9060005260206000209060020201600091509050806000018054600181600116156101000203166002900480601f016020809104026020016040519081016040528092919081815260200182805460018160011615610100020316600290048015610a065780601f106109db57610100808354040283529160200191610a06565b820191906000526020600020905b8154815290600101906020018083116109e957829003601f168201915b5050505050908060010154905082565b600460009054906101000a900460ff1681565b6000600580811115610a3757fe5b600460009054906101000a900460ff166005811115610a5257fe5b1415610a8057600360025481548110610a6757fe5b9060005260206000209060020201600101549050610a85565b600090505b90565b6060600580811115610a9657fe5b600460009054906101000a900460ff166005811115610ab157fe5b1415610b7757600360025481548110610ac657fe5b90600052602060002090600202016000018054600181600116156101000203166002900480601f016020809104026020016040519081016040528092919081815260200182805460018160011615610100020316600290048015610b6b5780601f10610b4057610100808354040283529160200191610b6b565b820191906000526020600020905b815481529060010190602001808311610b4e57829003601f168201915b50505050509050610bb0565b6040518060400160405280600181526020017f300000000000000000000000000000000000000000000000000000000000000081525090505b90565b610bbb611dfb565b73ffffffffffffffffffffffffffffffffffffffff166000809054906101000a900473ffffffffffffffffffffffffffffffffffffffff1673ffffffffffffffffffffffffffffffffffffffff1614610c7c576040517f08c379a00000000000000000000000000000000000000000000000000000000081526004018080602001828103825260208152602001807f4f776e61626c653a2063616c6c6572206973206e6f7420746865206f776e657281525060200191505060405180910390fd5b60006005811115610c8957fe5b600460009054906101000a900460ff166005811115610ca457fe5b14610d17576040517f08c379a00000000000000000000000000000000000000000000000000000000081526004018080602001828103825260118152602001807f706173206c6520626f6e206d6f6d656e7400000000000000000000000000000081525060200191505060405180910390fd5b60001515600160008373ffffffffffffffffffffffffffffffffffffffff1673ffffffffffffffffffffffffffffffffffffffff16815260200190815260200160002060000160009054906101000a900460ff16151514610de0576040517f08c379a000000000000000000000000000000000000000000000000000000000815260040180806020018281038252600f8152602001807f742761732064656a6120766f74c3a9000000000000000000000000000000000081525060200191505060405180910390fd5b60018060008373ffffffffffffffffffffffffffffffffffffffff1673ffffffffffffffffffffffffffffffffffffffff16815260200190815260200160002060000160006101000a81548160ff0219169083151502179055506000600160008373ffffffffffffffffffffffffffffffffffffffff1673ffffffffffffffffffffffffffffffffffffffff16815260200190815260200160002060000160016101000a81548160ff0219169083151502179055507fb6be2187d059cc2a55fe29e0e503b566e1e0f8c8780096e185429350acffd3dd81604051808273ffffffffffffffffffffffffffffffffffffffff1673ffffffffffffffffffffffffffffffffffffffff16815260200191505060405180910390a150565b610f03611dfb565b73ffffffffffffffffffffffffffffffffffffffff166000809054906101000a900473ffffffffffffffffffffffffffffffffffffffff1673ffffffffffffffffffffffffffffffffffffffff1614610fc4576040517f08c379a00000000000000000000000000000000000000000000000000000000081526004018080602001828103825260208152602001807f4f776e61626c653a2063616c6c6572206973206e6f7420746865206f776e657281525060200191505060405180910390fd5b600073ffffffffffffffffffffffffffffffffffffffff166000809054906101000a900473ffffffffffffffffffffffffffffffffffffffff1673ffffffffffffffffffffffffffffffffffffffff167f8be0079c531659141344cd1fd0a4f28419497f9722a3daafe3b4186f6b6457e060405160405180910390a360008060006101000a81548173ffffffffffffffffffffffffffffffffffffffff021916908373ffffffffffffffffffffffffffffffffffffffff160217905550565b60008060009054906101000a900473ffffffffffffffffffffffffffffffffffffffff16905090565b6060806040518060400160405280601881526020017f566f696369206c65732070726f706f736974696f6e733a200000000000000000815250905060606040518060400160405280600d81526020017f2e0a2053756976616e74653a2000000000000000000000000000000000000000815250905060606040518060400160405280601081526020017f2c2064656372697465207061723a202000000000000000000000000000000000815250905060606040518060400160405280601381526020017f70726f706f736974696f6e206e756d65726f2000000000000000000000000000815250905060606040518060400160405280601c81526020017f2c20612072656375206365206e6f6d62726520646520766f74653a2000000000815250905060606040518060200160405280600081525090506060604051806020016040528060008152509050606060405180602001604052806000815250905060008090505b6003805490508110156115ca576003818154811061122b57fe5b90600052602060002090600202016000018054600181600116156101000203166002900480601f0160208091040260200160405190810160405280929190818152602001828054600181600116156101000203166002900480156112d05780601f106112a5576101008083540402835291602001916112d0565b820191906000526020600020905b8154815290600101906020018083116112b357829003601f168201915b505050505093506112e081611e03565b9250611309600382815481106112f257fe5b906000526020600020906002020160010154611e03565b9150888684898789878e6040516020018089805190602001908083835b602083106113495780518252602082019150602081019050602083039250611326565b6001836020036101000a03801982511681845116808217855250505050505090500188805190602001908083835b6020831061139a5780518252602082019150602081019050602083039250611377565b6001836020036101000a03801982511681845116808217855250505050505090500187805190602001908083835b602083106113eb57805182526020820191506020810190506020830392506113c8565b6001836020036101000a03801982511681845116808217855250505050505090500186805190602001908083835b6020831061143c5780518252602082019150602081019050602083039250611419565b6001836020036101000a03801982511681845116808217855250505050505090500185805190602001908083835b6020831061148d578051825260208201915060208101905060208303925061146a565b6001836020036101000a03801982511681845116808217855250505050505090500184805190602001908083835b602083106114de57805182526020820191506020810190506020830392506114bb565b6001836020036101000a03801982511681845116808217855250505050505090500183805190602001908083835b6020831061152f578051825260208201915060208101905060208303925061150c565b6001836020036101000a03801982511681845116808217855250505050505090500182805190602001908083835b60208310611580578051825260208201915060208101905060208303925061155d565b6001836020036101000a0380198251168184511680821785525050505050509050019850505050505050505060405160208183030381529060405298508080600101915050611211565b50879850505050505050505090565b6000600160008373ffffffffffffffffffffffffffffffffffffffff1673ffffffffffffffffffffffffffffffffffffffff168152602001908152602001600020600101549050919050565b60016020528060005260406000206000915090508060000160009054906101000a900460ff16908060000160019054906101000a900460ff16908060010154905083565b6001600581111561167657fe5b600460009054906101000a900460ff16600581111561169157fe5b146116e7576040517f08c379a00000000000000000000000000000000000000000000000000000000081526004018080602001828103825260318152602001806129386031913960400191505060405180910390fd5b600160003373ffffffffffffffffffffffffffffffffffffffff1673ffffffffffffffffffffffffffffffffffffffff16815260200190815260200160002060000160009054906101000a900460ff1661178c576040517f08c379a000000000000000000000000000000000000000000000000000000000815260040180806020018281038252602f8152602001806128e3602f913960400191505060405180910390fd5b7f92e393e9b54e2f801d3ea4beb0c5e71a21cc34a5d34b77d0fb8a3aa1650dc18f6003805490506040518082815260200191505060405180910390a16003604051806040016040528084848080601f016020809104026020016040519081016040528093929190818152602001838380828437600081840152601f19601f82011690508083019250505050505050815260200160008152509080600181540180825580915050600190039060005260206000209060020201600090919091909150600082015181600001908051906020019061186992919061281c565b506020820151816001015550505050565b60025481565b600061188a611dfb565b73ffffffffffffffffffffffffffffffffffffffff166000809054906101000a900473ffffffffffffffffffffffffffffffffffffffff1673ffffffffffffffffffffffffffffffffffffffff161461194b576040517f08c379a00000000000000000000000000000000000000000000000000000000081526004018080602001828103825260208152602001807f4f776e61626c653a2063616c6c6572206973206e6f7420746865206f776e657281525060200191505060405180910390fd5b6000600460009054906101000a900460ff16600581111561196857fe5b9050600081141561197c5761197b611f47565b5b600181141561198e5761198d61207a565b5b60028114156119a05761199f6121ad565b5b60038114156119b2576119b16122e0565b5b60048114156119c4576119c3612413565b5b6119cc611c38565b91505090565b6000600160008373ffffffffffffffffffffffffffffffffffffffff1673ffffffffffffffffffffffffffffffffffffffff16815260200190815260200160002060000160009054906101000a900460ff169050919050565b611a33611dfb565b73ffffffffffffffffffffffffffffffffffffffff166000809054906101000a900473ffffffffffffffffffffffffffffffffffffffff1673ffffffffffffffffffffffffffffffffffffffff1614611af4576040517f08c379a00000000000000000000000000000000000000000000000000000000081526004018080602001828103825260208152602001807f4f776e61626c653a2063616c6c6572206973206e6f7420746865206f776e657281525060200191505060405180910390fd5b600073ffffffffffffffffffffffffffffffffffffffff168173ffffffffffffffffffffffffffffffffffffffff161415611b7a576040517f08c379a00000000000000000000000000000000000000000000000000000000081526004018080602001828103825260268152602001806129126026913960400191505060405180910390fd5b8073ffffffffffffffffffffffffffffffffffffffff166000809054906101000a900473ffffffffffffffffffffffffffffffffffffffff1673ffffffffffffffffffffffffffffffffffffffff167f8be0079c531659141344cd1fd0a4f28419497f9722a3daafe3b4186f6b6457e060405160405180910390a3806000806101000a81548173ffffffffffffffffffffffffffffffffffffffff021916908373ffffffffffffffffffffffffffffffffffffffff16021790555050565b600060606040518060200160405280600081525090506000600460009054906101000a900460ff166005811115611c6b57fe5b90506000811415611c9b576040518060600160405280602881526020016129696028913991508092505050611df8565b6001811415611ce6576040518060400160405280601581526020017f50726f706f736974696f6e7320656e20636f757273000000000000000000000081525091508092505050611df8565b6002811415611d31576040518060400160405280601481526020017f46696e206465732070726f706f736974696f6e7300000000000000000000000081525091508092505050611df8565b6003811415611d7c576040518060400160405280600e81526020017f566f74657320656e20636f75727300000000000000000000000000000000000081525091508092505050611df8565b6004811415611dc7576040518060400160405280600a81526020017f566f74657320636c6f730000000000000000000000000000000000000000000081525091508092505050611df8565b6005811415611df5576040518060600160405280603381526020016129916033913991508092505050611df8565b50505b90565b600033905090565b60606000821415611e4b576040518060400160405280600181526020017f30000000000000000000000000000000000000000000000000000000000000008152509050611f42565b600082905060005b60008214611e75578080600101915050600a8281611e6d57fe5b049150611e53565b60608167ffffffffffffffff81118015611e8e57600080fd5b506040519080825280601f01601f191660200182016040528015611ec15781602001600182028036833780820191505090505b50905060006001830390505b60008614611f3a57600a8681611edf57fe5b0660300160f81b82828060019003935081518110611ef957fe5b60200101907effffffffffffffffffffffffffffffffffffffffffffffffffffffffffffff1916908160001a905350600a8681611f3257fe5b049550611ecd565b819450505050505b919050565b611f4f611dfb565b73ffffffffffffffffffffffffffffffffffffffff166000809054906101000a900473ffffffffffffffffffffffffffffffffffffffff1673ffffffffffffffffffffffffffffffffffffffff1614612010576040517f08c379a00000000000000000000000000000000000000000000000000000000081526004018080602001828103825260208152602001807f4f776e61626c653a2063616c6c6572206973206e6f7420746865206f776e657281525060200191505060405180910390fd5b6000600581111561201d57fe5b600460009054906101000a900460ff16600581111561203857fe5b1461204257600080fd5b7f344c25562921d075a298d34b6dd1fd00d36ff293974539dfd4a8c625d9f0064c60405160405180910390a16120786001612590565b565b612082611dfb565b73ffffffffffffffffffffffffffffffffffffffff166000809054906101000a900473ffffffffffffffffffffffffffffffffffffffff1673ffffffffffffffffffffffffffffffffffffffff1614612143576040517f08c379a00000000000000000000000000000000000000000000000000000000081526004018080602001828103825260208152602001807f4f776e61626c653a2063616c6c6572206973206e6f7420746865206f776e657281525060200191505060405180910390fd5b6001600581111561215057fe5b600460009054906101000a900460ff16600581111561216b57fe5b1461217557600080fd5b7f240cb87b2e4df4c318e72bd714d45a9cad60249e883ff56b1fffd83a4595a8fa60405160405180910390a16121ab6002612590565b565b6121b5611dfb565b73ffffffffffffffffffffffffffffffffffffffff166000809054906101000a900473ffffffffffffffffffffffffffffffffffffffff1673ffffffffffffffffffffffffffffffffffffffff1614612276576040517f08c379a00000000000000000000000000000000000000000000000000000000081526004018080602001828103825260208152602001807f4f776e61626c653a2063616c6c6572206973206e6f7420746865206f776e657281525060200191505060405180910390fd5b6002600581111561228357fe5b600460009054906101000a900460ff16600581111561229e57fe5b146122a857600080fd5b7f1b8e19a458c1bcd88553332c518cc5c4e2d5793e712ee766d4f1c14f672ef1f560405160405180910390a16122de6003612590565b565b6122e8611dfb565b73ffffffffffffffffffffffffffffffffffffffff166000809054906101000a900473ffffffffffffffffffffffffffffffffffffffff1673ffffffffffffffffffffffffffffffffffffffff16146123a9576040517f08c379a00000000000000000000000000000000000000000000000000000000081526004018080602001828103825260208152602001807f4f776e61626c653a2063616c6c6572206973206e6f7420746865206f776e657281525060200191505060405180910390fd5b600360058111156123b657fe5b600460009054906101000a900460ff1660058111156123d157fe5b146123db57600080fd5b7fc379d349a6301baf50fb2f98d829f4ae10b1cdb7c66f4e4d8117302df7b8cd4c60405160405180910390a16124116004612590565b565b61241b611dfb565b73ffffffffffffffffffffffffffffffffffffffff166000809054906101000a900473ffffffffffffffffffffffffffffffffffffffff1673ffffffffffffffffffffffffffffffffffffffff16146124dc576040517f08c379a00000000000000000000000000000000000000000000000000000000081526004018080602001828103825260208152602001807f4f776e61626c653a2063616c6c6572206973206e6f7420746865206f776e657281525060200191505060405180910390fd5b600460058111156124e957fe5b600460009054906101000a900460ff16600581111561250457fe5b1461250e57600080fd5b60006002819055506000600190505b6003805490508110156125855760036002548154811061253957fe5b9060005260206000209060020201600101546003828154811061255857fe5b906000526020600020906002020160010154111561257857806002819055505b808060010191505061251d565b5061258e6126e9565b565b612598611dfb565b73ffffffffffffffffffffffffffffffffffffffff166000809054906101000a900473ffffffffffffffffffffffffffffffffffffffff1673ffffffffffffffffffffffffffffffffffffffff1614612659576040517f08c379a00000000000000000000000000000000000000000000000000000000081526004018080602001828103825260208152602001807f4f776e61626c653a2063616c6c6572206973206e6f7420746865206f776e657281525060200191505060405180910390fd5b7f0a97a4ee45751e2abf3e4fc8946939630b11b371ea8ae39ccdc3056e98f5cc3f600460009054906101000a900460ff16826040518083600581111561269b57fe5b60ff1681526020018260058111156126af57fe5b60ff1681526020019250505060405180910390a180600460006101000a81548160ff021916908360058111156126e157fe5b021790555050565b6126f1611dfb565b73ffffffffffffffffffffffffffffffffffffffff166000809054906101000a900473ffffffffffffffffffffffffffffffffffffffff1673ffffffffffffffffffffffffffffffffffffffff16146127b2576040517f08c379a00000000000000000000000000000000000000000000000000000000081526004018080602001828103825260208152602001807f4f776e61626c653a2063616c6c6572206973206e6f7420746865206f776e657281525060200191505060405180910390fd5b600460058111156127bf57fe5b600460009054906101000a900460ff1660058111156127da57fe5b146127e457600080fd5b7f0e5e95ff8725ab3e7a4b6b59998a4c344c2aa8d1485f5e60cb7f337768e6134760405160405180910390a161281a6005612590565b565b828054600181600116156101000203166002900490600052602060002090601f016020900481019282601f1061285d57805160ff191683800117855561288b565b8280016001018555821561288b579182015b8281111561288a57825182559160200191906001019061286f565b5b509050612898919061289c565b5090565b6128be91905b808211156128ba5760008160009055506001016128a2565b5090565b9056fe766f7573206e276574657320706173206175746f726973c3a9206120766f746572766f7573206e276574657320706173206175746f726973c3a920c3a0207061727469636970657220617520766f74654f776e61626c653a206e6577206f776e657220697320746865207a65726f20616464726573736365206e2765737420706173206c65206d6f6d656e74206465206661697265206465732070726f706f736974696f6e7321456e72656769737472656d656e7420646573207574696c697361746575727320656e20636f75727346696e2064657320766f7465732c20766f757320706f7576657a20766f697220766f6972206c65732072c3a973756c74617473a264697066735822122060dd55f6c89ee33d54e2d963bebba4145c35081646e838bd32529fe49b0bf0d464736f6c634300060b0033",
  "immutableReferences": {},
  "source": "// SPDX-License-Identifier: MIT\npragma solidity 0.6.11;\nimport \"../client/node_modules/@openzeppelin/contracts/access/Ownable.sol\";\n\ncontract Voting is Ownable{\n    \n    mapping (address => Voter) public voters;\n    uint public winningProposalId=0;\n    \n    event VoterRegistered(address voterAddress);\n    event ProposalsRegistrationStarted();\n    event ProposalsRegistrationEnded();\n    event ProposalRegistered(uint proposalId);\n    event VotingSessionStarted();\n    event VotingSessionEnded();\n    event Voted (address voter, uint proposalId);\n    event VotesTallied();\n    event WorkflowStatusChange(WorkflowStatus previousStatus, WorkflowStatus newStatus);\n    \n    struct Voter {\n        bool isRegistered; \n        bool hasVoted;\n        uint votedProposalId;\n    }\n\n    struct Proposal {\n        string description;\n        uint voteCount;\n    }\n    Proposal[] public proposals;\n    \n    enum WorkflowStatus {\n        RegisteringVoters,\n        ProposalsRegistrationStarted,\n        ProposalsRegistrationEnded,\n        VotingSessionStarted,\n        VotingSessionEnded,\n        VotesTallied\n    }\n    WorkflowStatus public status;\n    \n    /*admin*/\n    \n    function registerVoter(address _address) public onlyOwner{\n        require(status == WorkflowStatus.RegisteringVoters, \"pas le bon moment\");\n        require(voters[_address].isRegistered == false, \"t'as deja vot\");\n        voters[_address].isRegistered = true;\n        voters[_address].hasVoted = false;\n        emit VoterRegistered(_address);\n    }\n    \n    function countVotes() internal onlyOwner {\n        require(status == WorkflowStatus.VotingSessionEnded);\n        winningProposalId=0;\n        for(uint i = 1; i < proposals.length; i++){\n            if(proposals[i].voteCount > proposals[winningProposalId].voteCount){\n                winningProposalId = i;\n            }\n        }\n            stepTallied();\n    }\n\n    function nextStep () public onlyOwner returns (uint){\n        uint step= uint(status);\n        if(step == 0){\n            stepProposalstart();\n        }\n        if(step == 1){\n           stepProposalstop();\n        }\n        if(step == 2){\n           stepVotingStart();\n        }\n        if(step == 3){\n            stepVotingStop();\n        }\n        if(step == 4){\n            countVotes();\n        }\n        return getWorkflowStatus();\n    }\n\n    /* changer les tats */\n\n    function changeStatus(WorkflowStatus _status) internal onlyOwner {\n        emit WorkflowStatusChange(status, _status);\n        status = _status;\n    }\n  \n    function stepProposalstart() internal onlyOwner {\n        require(status == WorkflowStatus.RegisteringVoters);\n        emit ProposalsRegistrationStarted();\n        changeStatus(WorkflowStatus.ProposalsRegistrationStarted);\n    }\n    \n    function stepProposalstop() internal onlyOwner {\n        require(status == WorkflowStatus.ProposalsRegistrationStarted);\n        emit ProposalsRegistrationEnded();\n        changeStatus(WorkflowStatus.ProposalsRegistrationEnded);\n    }\n    \n    function stepVotingStart() internal onlyOwner {\n        require(status == WorkflowStatus.ProposalsRegistrationEnded);\n        emit VotingSessionStarted();\n        changeStatus(WorkflowStatus.VotingSessionStarted);\n    }\n    \n    function stepVotingStop() internal onlyOwner {\n        require(status == WorkflowStatus.VotingSessionStarted);\n        emit VotingSessionEnded();\n        changeStatus(WorkflowStatus.VotingSessionEnded);\n    }\n\n    function stepTallied() internal onlyOwner {\n        require(status == WorkflowStatus.VotingSessionEnded);\n        emit VotesTallied();\n        changeStatus(WorkflowStatus.VotesTallied);\n\n    }\n     \n    /* pour les voteurs */\n    \n    function propose(string calldata _description) public {\n        require (status == WorkflowStatus.ProposalsRegistrationStarted, \"ce n'est pas le moment de faire des propositions!\");\n        require (voters[msg.sender].isRegistered, \"vous n'etes pas autoris  participer au vote\");\n        emit ProposalRegistered(proposals.length);\n        proposals.push(Proposal(_description, 0));\n    }\n    \n    function vote(uint _proposalId) public {\n        require(status == WorkflowStatus.VotingSessionStarted , \"ce n'est pas le moment de voter!\");\n        require( voters[msg.sender].isRegistered, \"vous n'etes pas autoris a voter\");\n        require( !voters[msg.sender].hasVoted, \"vous avez dj vot\");\n        voters[msg.sender].hasVoted = true;\n        voters[msg.sender].votedProposalId = _proposalId;\n        proposals[_proposalId].voteCount++;\n        emit Voted(msg.sender, _proposalId);\n    }\n\n    /* Getters */\n\n    function getWinningProposalDescription() public view returns (string memory) {\n        if (status == WorkflowStatus.VotesTallied){\n            return proposals[winningProposalId].description;\n        }\n        else return \"0\";\n    }\n    \n    function getWinningProposalVoteCount() public view returns (uint) {\n        if (status == WorkflowStatus.VotesTallied){\n            return proposals[winningProposalId].voteCount;\n        }\n        else return 0;\n    }\n    \n    function isRegisteredVoter(address _voterAddress) public view returns (bool) {\n        return voters[_voterAddress].isRegistered;\n    }\n\n    function getVotedByAVoter(address _voteraddress) public view returns (uint) {\n        return voters[_voteraddress].votedProposalId;\n    }\n    \n    function getWorkflowStatus() public view returns (uint ) {\n        string memory result = \"\";\n        uint step= uint(status);\n        if(step == 0){\n            result = \"Enregistrement des utilisateurs en cours\";\n            return step;\n        }\n        if(step == 1){\n            result = \"Propositions en cours\";\n            return step;\n        }\n        if(step == 2){\n            result = \"Fin des propositions\";\n            return step;\n        }\n        if(step == 3){\n            result = \"Votes en cours\";\n            return step;\n        }\n        if(step == 4){\n            result = \"Votes clos\";\n            return step;\n        }\n        if(step == 5){\n            result = \"Fin des votes, vous pouvez voir voir les rsultats\";\n            return step;\n        }\n    }\n\n\n    function showProposals() public view returns (string memory){\n        string memory total = \"Voici les propositions: \";\n        string memory endline= \".\\n Suivante: \";\n        string memory descDesc = \", decrite par:  \";\n        string memory idDesc = \"proposition numero \";\n        string memory voteCountedDesc = \", a recu ce nombre de vote: \"; \n        string memory desc = \"\";\n        string memory id = \"\";\n        string memory voteCounted = \"\"; \n        for(uint i = 0; i < proposals.length; i++){\n            desc= proposals[i].description;\n            id= uint2str(i);\n            voteCounted= uint2str (proposals[i].voteCount);\n            total = string (abi.encodePacked(total, idDesc, id, descDesc, desc, voteCountedDesc, voteCounted, endline ));\n        }\n        return total;\n    }\n    function uint2str(uint _i) internal pure returns (string memory _uintAsString) {\n        if (_i == 0) {\n            return \"0\";\n        }\n        uint j = _i;\n        uint len;\n        while (j != 0) {\n            len++;\n            j /= 10;\n        }\n        bytes memory bstr = new bytes(len);\n        uint k = len - 1;\n        while (_i != 0) {\n            bstr[k--] = byte(uint8(48 + _i % 10));\n            _i /= 10;\n        }\n        return string(bstr);\n    }\n\n}",
  "sourcePath": "/root/dev/cours/TPVOTE/contracts/Voting.sol",
  "compiler": {
    "name": "solc",
    "version": "0.6.11+commit.5ef660b1.Emscripten.clang"
  },
  "schemaVersion": "3.3.2",
  "updatedAt": "2020-11-29T20:05:48.738Z",
  "networkType": "ethereum",
  "devdoc": {
    "kind": "dev",
    "methods": {
      "owner()": {
        "details": "Returns the address of the current owner."
      },
      "renounceOwnership()": {
        "details": "Leaves the contract without owner. It will not be possible to call `onlyOwner` functions anymore. Can only be called by the current owner. NOTE: Renouncing ownership will leave the contract without an owner, thereby removing any functionality that is only available to the owner."
      },
      "transferOwnership(address)": {
        "details": "Transfers ownership of the contract to a new account (`newOwner`). Can only be called by the current owner."
      }
    },
    "version": 1
  },
  "userdoc": {
    "kind": "user",
    "methods": {},
    "version": 1
  }
}